{
  "contractName": "Token",
  "abi": [
    {
      "inputs": [
        {
          "internalType": "string",
          "name": "name",
          "type": "string"
        },
        {
          "internalType": "string",
          "name": "symbol",
          "type": "string"
        }
      ],
      "stateMutability": "nonpayable",
      "type": "constructor"
    },
    {
      "anonymous": false,
      "inputs": [
        {
          "indexed": true,
          "internalType": "address",
          "name": "owner",
          "type": "address"
        },
        {
          "indexed": true,
          "internalType": "address",
          "name": "approved",
          "type": "address"
        },
        {
          "indexed": true,
          "internalType": "uint256",
          "name": "tokenId",
          "type": "uint256"
        }
      ],
      "name": "Approval",
      "type": "event"
    },
    {
      "anonymous": false,
      "inputs": [
        {
          "indexed": true,
          "internalType": "address",
          "name": "owner",
          "type": "address"
        },
        {
          "indexed": true,
          "internalType": "address",
          "name": "operator",
          "type": "address"
        },
        {
          "indexed": false,
          "internalType": "bool",
          "name": "approved",
          "type": "bool"
        }
      ],
      "name": "ApprovalForAll",
      "type": "event"
    },
    {
      "anonymous": false,
      "inputs": [
        {
          "indexed": true,
          "internalType": "address",
          "name": "previousOwner",
          "type": "address"
        },
        {
          "indexed": true,
          "internalType": "address",
          "name": "newOwner",
          "type": "address"
        }
      ],
      "name": "OwnershipTransferred",
      "type": "event"
    },
    {
      "anonymous": false,
      "inputs": [
        {
          "indexed": true,
          "internalType": "address",
          "name": "from",
          "type": "address"
        },
        {
          "indexed": true,
          "internalType": "address",
          "name": "to",
          "type": "address"
        },
        {
          "indexed": true,
          "internalType": "uint256",
          "name": "tokenId",
          "type": "uint256"
        }
      ],
      "name": "Transfer",
      "type": "event"
    },
    {
      "inputs": [
        {
          "internalType": "address",
          "name": "to",
          "type": "address"
        },
        {
          "internalType": "uint256",
          "name": "tokenId",
          "type": "uint256"
        }
      ],
      "name": "approve",
      "outputs": [],
      "stateMutability": "nonpayable",
      "type": "function"
    },
    {
      "inputs": [
        {
          "internalType": "address",
          "name": "owner",
          "type": "address"
        }
      ],
      "name": "balanceOf",
      "outputs": [
        {
          "internalType": "uint256",
          "name": "",
          "type": "uint256"
        }
      ],
      "stateMutability": "view",
      "type": "function"
    },
    {
      "inputs": [
        {
          "internalType": "uint256",
          "name": "tokenId",
          "type": "uint256"
        }
      ],
      "name": "getApproved",
      "outputs": [
        {
          "internalType": "address",
          "name": "",
          "type": "address"
        }
      ],
      "stateMutability": "view",
      "type": "function"
    },
    {
      "inputs": [
        {
          "internalType": "address",
          "name": "owner",
          "type": "address"
        },
        {
          "internalType": "address",
          "name": "operator",
          "type": "address"
        }
      ],
      "name": "isApprovedForAll",
      "outputs": [
        {
          "internalType": "bool",
          "name": "",
          "type": "bool"
        }
      ],
      "stateMutability": "view",
      "type": "function"
    },
    {
      "inputs": [],
      "name": "name",
      "outputs": [
        {
          "internalType": "string",
          "name": "",
          "type": "string"
        }
      ],
      "stateMutability": "view",
      "type": "function"
    },
    {
      "inputs": [],
      "name": "owner",
      "outputs": [
        {
          "internalType": "address",
          "name": "",
          "type": "address"
        }
      ],
      "stateMutability": "view",
      "type": "function"
    },
    {
      "inputs": [
        {
          "internalType": "uint256",
          "name": "tokenId",
          "type": "uint256"
        }
      ],
      "name": "ownerOf",
      "outputs": [
        {
          "internalType": "address",
          "name": "",
          "type": "address"
        }
      ],
      "stateMutability": "view",
      "type": "function"
    },
    {
      "inputs": [],
      "name": "renounceOwnership",
      "outputs": [],
      "stateMutability": "nonpayable",
      "type": "function"
    },
    {
      "inputs": [
        {
          "internalType": "address",
          "name": "from",
          "type": "address"
        },
        {
          "internalType": "address",
          "name": "to",
          "type": "address"
        },
        {
          "internalType": "uint256",
          "name": "tokenId",
          "type": "uint256"
        }
      ],
      "name": "safeTransferFrom",
      "outputs": [],
      "stateMutability": "nonpayable",
      "type": "function"
    },
    {
      "inputs": [
        {
          "internalType": "address",
          "name": "from",
          "type": "address"
        },
        {
          "internalType": "address",
          "name": "to",
          "type": "address"
        },
        {
          "internalType": "uint256",
          "name": "tokenId",
          "type": "uint256"
        },
        {
          "internalType": "bytes",
          "name": "_data",
          "type": "bytes"
        }
      ],
      "name": "safeTransferFrom",
      "outputs": [],
      "stateMutability": "nonpayable",
      "type": "function"
    },
    {
      "inputs": [
        {
          "internalType": "address",
          "name": "operator",
          "type": "address"
        },
        {
          "internalType": "bool",
          "name": "approved",
          "type": "bool"
        }
      ],
      "name": "setApprovalForAll",
      "outputs": [],
      "stateMutability": "nonpayable",
      "type": "function"
    },
    {
      "inputs": [
        {
          "internalType": "bytes4",
          "name": "interfaceId",
          "type": "bytes4"
        }
      ],
      "name": "supportsInterface",
      "outputs": [
        {
          "internalType": "bool",
          "name": "",
          "type": "bool"
        }
      ],
      "stateMutability": "view",
      "type": "function"
    },
    {
      "inputs": [],
      "name": "symbol",
      "outputs": [
        {
          "internalType": "string",
          "name": "",
          "type": "string"
        }
      ],
      "stateMutability": "view",
      "type": "function"
    },
    {
      "inputs": [
        {
          "internalType": "uint256",
          "name": "tokenId",
          "type": "uint256"
        }
      ],
      "name": "tokenURI",
      "outputs": [
        {
          "internalType": "string",
          "name": "",
          "type": "string"
        }
      ],
      "stateMutability": "view",
      "type": "function"
    },
    {
      "inputs": [
        {
          "internalType": "address",
          "name": "from",
          "type": "address"
        },
        {
          "internalType": "address",
          "name": "to",
          "type": "address"
        },
        {
          "internalType": "uint256",
          "name": "tokenId",
          "type": "uint256"
        }
      ],
      "name": "transferFrom",
      "outputs": [],
      "stateMutability": "nonpayable",
      "type": "function"
    },
    {
      "inputs": [
        {
          "internalType": "address",
          "name": "newOwner",
          "type": "address"
        }
      ],
      "name": "transferOwnership",
      "outputs": [],
      "stateMutability": "nonpayable",
      "type": "function"
    },
    {
      "inputs": [
        {
          "internalType": "uint8",
          "name": "damage",
          "type": "uint8"
        },
        {
          "internalType": "uint8",
          "name": "magic",
          "type": "uint8"
        },
        {
          "internalType": "uint256",
          "name": "endurance",
          "type": "uint256"
        }
      ],
      "name": "mint",
      "outputs": [],
      "stateMutability": "nonpayable",
      "type": "function"
    },
    {
      "inputs": [
        {
          "internalType": "uint256",
          "name": "tokenId",
          "type": "uint256"
        }
      ],
      "name": "feed",
      "outputs": [],
      "stateMutability": "nonpayable",
      "type": "function"
    }
  ],
  "bytecode": "0x608060405260006007553480156200001657600080fd5b50604051620031093803806200310983398181016040528101906200003c919062000255565b818181600090805190602001906200005692919062000133565b5080600190805190602001906200006f92919062000133565b5050506000620000846200012b60201b60201c565b905080600660006101000a81548173ffffffffffffffffffffffffffffffffffffffff021916908373ffffffffffffffffffffffffffffffffffffffff1602179055508073ffffffffffffffffffffffffffffffffffffffff16600073ffffffffffffffffffffffffffffffffffffffff167f8be0079c531659141344cd1fd0a4f28419497f9722a3daafe3b4186f6b6457e060405160405180910390a3505050620003f9565b600033905090565b828054620001419062000365565b90600052602060002090601f016020900481019282620001655760008555620001b1565b82601f106200018057805160ff1916838001178555620001b1565b82800160010185558215620001b1579182015b82811115620001b057825182559160200191906001019062000193565b5b509050620001c09190620001c4565b5090565b5b80821115620001df576000816000905550600101620001c5565b5090565b6000620001fa620001f484620002fc565b620002c8565b9050828152602081018484840111156200021357600080fd5b620002208482856200032f565b509392505050565b600082601f8301126200023a57600080fd5b81516200024c848260208601620001e3565b91505092915050565b600080604083850312156200026957600080fd5b600083015167ffffffffffffffff8111156200028457600080fd5b620002928582860162000228565b925050602083015167ffffffffffffffff811115620002b057600080fd5b620002be8582860162000228565b9150509250929050565b6000604051905081810181811067ffffffffffffffff82111715620002f257620002f1620003ca565b5b8060405250919050565b600067ffffffffffffffff8211156200031a5762000319620003ca565b5b601f19601f8301169050602081019050919050565b60005b838110156200034f57808201518184015260208101905062000332565b838111156200035f576000848401525b50505050565b600060028204905060018216806200037e57607f821691505b602082108114156200039557620003946200039b565b5b50919050565b7f4e487b7100000000000000000000000000000000000000000000000000000000600052602260045260246000fd5b7f4e487b7100000000000000000000000000000000000000000000000000000000600052604160045260246000fd5b612d0080620004096000396000f3fe608060405234801561001057600080fd5b50600436106101165760003560e01c80638da5cb5b116100a2578063c87b56dd11610071578063c87b56dd146102cb578063e985e9c5146102fb578063eb22ed321461032b578063f2fde38b14610347578063f59dfdfb1461036357610116565b80638da5cb5b1461025757806395d89b4114610275578063a22cb46514610293578063b88d4fde146102af57610116565b806323b872dd116100e957806323b872dd146101b557806342842e0e146101d15780636352211e146101ed57806370a082311461021d578063715018a61461024d57610116565b806301ffc9a71461011b57806306fdde031461014b578063081812fc14610169578063095ea7b314610199575b600080fd5b61013560048036038101906101309190611e77565b61037f565b6040516101429190612664565b60405180910390f35b610153610461565b604051610160919061267f565b60405180910390f35b610183600480360381019061017e9190611ec9565b6104f3565b60405161019091906125fd565b60405180910390f35b6101b360048036038101906101ae9190611e3b565b610578565b005b6101cf60048036038101906101ca9190611d35565b610690565b005b6101eb60048036038101906101e69190611d35565b6106f0565b005b61020760048036038101906102029190611ec9565b610710565b60405161021491906125fd565b60405180910390f35b61023760048036038101906102329190611cd0565b6107c2565b60405161024491906128a1565b60405180910390f35b61025561087a565b005b61025f6109b7565b60405161026c91906125fd565b60405180910390f35b61027d6109e1565b60405161028a919061267f565b60405180910390f35b6102ad60048036038101906102a89190611dff565b610a73565b005b6102c960048036038101906102c49190611d84565b610bf4565b005b6102e560048036038101906102e09190611ec9565b610c56565b6040516102f2919061267f565b60405180910390f35b61031560048036038101906103109190611cf9565b610cfd565b6040516103229190612664565b60405180910390f35b61034560048036038101906103409190611ef2565b610d91565b005b610361600480360381019061035c9190611cd0565b610ecb565b005b61037d60048036038101906103789190611ec9565b611077565b005b60007f80ac58cd000000000000000000000000000000000000000000000000000000007bffffffffffffffffffffffffffffffffffffffffffffffffffffffff1916827bffffffffffffffffffffffffffffffffffffffffffffffffffffffff1916148061044a57507f5b5e139f000000000000000000000000000000000000000000000000000000007bffffffffffffffffffffffffffffffffffffffffffffffffffffffff1916827bffffffffffffffffffffffffffffffffffffffffffffffffffffffff1916145b8061045a5750610459826110cc565b5b9050919050565b60606000805461047090612ade565b80601f016020809104026020016040519081016040528092919081815260200182805461049c90612ade565b80156104e95780601f106104be576101008083540402835291602001916104e9565b820191906000526020600020905b8154815290600101906020018083116104cc57829003601f168201915b5050505050905090565b60006104fe82611136565b61053d576040517f08c379a0000000000000000000000000000000000000000000000000000000008152600401610534906127e1565b60405180910390fd5b6004600083815260200190815260200160002060009054906101000a900473ffffffffffffffffffffffffffffffffffffffff169050919050565b600061058382610710565b90508073ffffffffffffffffffffffffffffffffffffffff168373ffffffffffffffffffffffffffffffffffffffff1614156105f4576040517f08c379a00000000000000000000000000000000000000000000000000000000081526004016105eb90612861565b60405180910390fd5b8073ffffffffffffffffffffffffffffffffffffffff166106136111a2565b73ffffffffffffffffffffffffffffffffffffffff16148061064257506106418161063c6111a2565b610cfd565b5b610681576040517f08c379a000000000000000000000000000000000000000000000000000000000815260040161067890612761565b60405180910390fd5b61068b83836111aa565b505050565b6106a161069b6111a2565b82611263565b6106e0576040517f08c379a00000000000000000000000000000000000000000000000000000000081526004016106d790612881565b60405180910390fd5b6106eb838383611341565b505050565b61070b83838360405180602001604052806000815250610bf4565b505050565b6000806002600084815260200190815260200160002060009054906101000a900473ffffffffffffffffffffffffffffffffffffffff169050600073ffffffffffffffffffffffffffffffffffffffff168173ffffffffffffffffffffffffffffffffffffffff1614156107b9576040517f08c379a00000000000000000000000000000000000000000000000000000000081526004016107b0906127a1565b60405180910390fd5b80915050919050565b60008073ffffffffffffffffffffffffffffffffffffffff168273ffffffffffffffffffffffffffffffffffffffff161415610833576040517f08c379a000000000000000000000000000000000000000000000000000000000815260040161082a90612781565b60405180910390fd5b600360008373ffffffffffffffffffffffffffffffffffffffff1673ffffffffffffffffffffffffffffffffffffffff168152602001908152602001600020549050919050565b6108826111a2565b73ffffffffffffffffffffffffffffffffffffffff166108a06109b7565b73ffffffffffffffffffffffffffffffffffffffff16146108f6576040517f08c379a00000000000000000000000000000000000000000000000000000000081526004016108ed90612801565b60405180910390fd5b600073ffffffffffffffffffffffffffffffffffffffff16600660009054906101000a900473ffffffffffffffffffffffffffffffffffffffff1673ffffffffffffffffffffffffffffffffffffffff167f8be0079c531659141344cd1fd0a4f28419497f9722a3daafe3b4186f6b6457e060405160405180910390a36000600660006101000a81548173ffffffffffffffffffffffffffffffffffffffff021916908373ffffffffffffffffffffffffffffffffffffffff160217905550565b6000600660009054906101000a900473ffffffffffffffffffffffffffffffffffffffff16905090565b6060600180546109f090612ade565b80601f0160208091040260200160405190810160405280929190818152602001828054610a1c90612ade565b8015610a695780601f10610a3e57610100808354040283529160200191610a69565b820191906000526020600020905b815481529060010190602001808311610a4c57829003601f168201915b5050505050905090565b610a7b6111a2565b73ffffffffffffffffffffffffffffffffffffffff168273ffffffffffffffffffffffffffffffffffffffff161415610ae9576040517f08c379a0000000000000000000000000000000000000000000000000000000008152600401610ae090612721565b60405180910390fd5b8060056000610af66111a2565b73ffffffffffffffffffffffffffffffffffffffff1673ffffffffffffffffffffffffffffffffffffffff16815260200190815260200160002060008473ffffffffffffffffffffffffffffffffffffffff1673ffffffffffffffffffffffffffffffffffffffff16815260200190815260200160002060006101000a81548160ff0219169083151502179055508173ffffffffffffffffffffffffffffffffffffffff16610ba36111a2565b73ffffffffffffffffffffffffffffffffffffffff167f17307eab39ab6107e8899845ad3d59bd9653f200f220920489ca2b5937696c3183604051610be89190612664565b60405180910390a35050565b610c05610bff6111a2565b83611263565b610c44576040517f08c379a0000000000000000000000000000000000000000000000000000000008152600401610c3b90612881565b60405180910390fd5b610c508484848461159d565b50505050565b6060610c6182611136565b610ca0576040517f08c379a0000000000000000000000000000000000000000000000000000000008152600401610c9790612841565b60405180910390fd5b6000610caa6115f9565b90506000815111610cca5760405180602001604052806000815250610cf5565b80610cd484611610565b604051602001610ce59291906125d9565b6040516020818303038152906040525b915050919050565b6000600560008473ffffffffffffffffffffffffffffffffffffffff1673ffffffffffffffffffffffffffffffffffffffff16815260200190815260200160002060008373ffffffffffffffffffffffffffffffffffffffff1673ffffffffffffffffffffffffffffffffffffffff16815260200190815260200160002060009054906101000a900460ff16905092915050565b610d996111a2565b73ffffffffffffffffffffffffffffffffffffffff16610db76109b7565b73ffffffffffffffffffffffffffffffffffffffff1614610e0d576040517f08c379a0000000000000000000000000000000000000000000000000000000008152600401610e0490612801565b60405180910390fd5b60405180608001604052808460ff1681526020018360ff1681526020014281526020018281525060086000600754815260200190815260200160002060008201518160000160006101000a81548160ff021916908360ff16021790555060208201518160000160016101000a81548160ff021916908360ff1602179055506040820151816001015560608201518160020155905050610eae336007546117bd565b60076000815480929190610ec190612b10565b9190505550505050565b610ed36111a2565b73ffffffffffffffffffffffffffffffffffffffff16610ef16109b7565b73ffffffffffffffffffffffffffffffffffffffff1614610f47576040517f08c379a0000000000000000000000000000000000000000000000000000000008152600401610f3e90612801565b60405180910390fd5b600073ffffffffffffffffffffffffffffffffffffffff168173ffffffffffffffffffffffffffffffffffffffff161415610fb7576040517f08c379a0000000000000000000000000000000000000000000000000000000008152600401610fae906126c1565b60405180910390fd5b8073ffffffffffffffffffffffffffffffffffffffff16600660009054906101000a900473ffffffffffffffffffffffffffffffffffffffff1673ffffffffffffffffffffffffffffffffffffffff167f8be0079c531659141344cd1fd0a4f28419497f9722a3daafe3b4186f6b6457e060405160405180910390a380600660006101000a81548173ffffffffffffffffffffffffffffffffffffffff021916908373ffffffffffffffffffffffffffffffffffffffff16021790555050565b600060086000838152602001908152602001600020905042816002015482600101546110a39190612960565b116110ad57600080fd5b4260086000848152602001908152602001600020600101819055505050565b60007f01ffc9a7000000000000000000000000000000000000000000000000000000007bffffffffffffffffffffffffffffffffffffffffffffffffffffffff1916827bffffffffffffffffffffffffffffffffffffffffffffffffffffffff1916149050919050565b60008073ffffffffffffffffffffffffffffffffffffffff166002600084815260200190815260200160002060009054906101000a900473ffffffffffffffffffffffffffffffffffffffff1673ffffffffffffffffffffffffffffffffffffffff1614159050919050565b600033905090565b816004600083815260200190815260200160002060006101000a81548173ffffffffffffffffffffffffffffffffffffffff021916908373ffffffffffffffffffffffffffffffffffffffff160217905550808273ffffffffffffffffffffffffffffffffffffffff1661121d83610710565b73ffffffffffffffffffffffffffffffffffffffff167f8c5be1e5ebec7d5bd14f71427d1e84f3dd0314c0f7b2291e5b200ac8c7c3b92560405160405180910390a45050565b600061126e82611136565b6112ad576040517f08c379a00000000000000000000000000000000000000000000000000000000081526004016112a490612741565b60405180910390fd5b60006112b883610710565b90508073ffffffffffffffffffffffffffffffffffffffff168473ffffffffffffffffffffffffffffffffffffffff16148061132757508373ffffffffffffffffffffffffffffffffffffffff1661130f846104f3565b73ffffffffffffffffffffffffffffffffffffffff16145b8061133857506113378185610cfd565b5b91505092915050565b8273ffffffffffffffffffffffffffffffffffffffff1661136182610710565b73ffffffffffffffffffffffffffffffffffffffff16146113b7576040517f08c379a00000000000000000000000000000000000000000000000000000000081526004016113ae90612821565b60405180910390fd5b600073ffffffffffffffffffffffffffffffffffffffff168273ffffffffffffffffffffffffffffffffffffffff161415611427576040517f08c379a000000000000000000000000000000000000000000000000000000000815260040161141e90612701565b60405180910390fd5b6114328383836117db565b61143d6000826111aa565b6001600360008573ffffffffffffffffffffffffffffffffffffffff1673ffffffffffffffffffffffffffffffffffffffff168152602001908152602001600020600082825461148d91906129e7565b925050819055506001600360008473ffffffffffffffffffffffffffffffffffffffff1673ffffffffffffffffffffffffffffffffffffffff16815260200190815260200160002060008282546114e49190612960565b92505081905550816002600083815260200190815260200160002060006101000a81548173ffffffffffffffffffffffffffffffffffffffff021916908373ffffffffffffffffffffffffffffffffffffffff160217905550808273ffffffffffffffffffffffffffffffffffffffff168473ffffffffffffffffffffffffffffffffffffffff167fddf252ad1be2c89b69c2b068fc378daa952ba7f163c4a11628f55a4df523b3ef60405160405180910390a4505050565b6115a8848484611341565b6115b484848484611817565b6115f3576040517f08c379a00000000000000000000000000000000000000000000000000000000081526004016115ea906126a1565b60405180910390fd5b50505050565b606060405180602001604052806000815250905090565b60606000821415611658576040518060400160405280600181526020017f300000000000000000000000000000000000000000000000000000000000000081525090506117b8565b600082905060005b6000821461168a57808061167390612b10565b915050600a8261168391906129b6565b9150611660565b60008167ffffffffffffffff8111156116cc577f4e487b7100000000000000000000000000000000000000000000000000000000600052604160045260246000fd5b6040519080825280601f01601f1916602001820160405280156116fe5781602001600182028036833780820191505090505b5090505b600085146117b15760018261171791906129e7565b9150600a856117269190612b59565b60306117329190612960565b60f81b81838151811061176e577f4e487b7100000000000000000000000000000000000000000000000000000000600052603260045260246000fd5b60200101907effffffffffffffffffffffffffffffffffffffffffffffffffffffffffffff1916908160001a905350600a856117aa91906129b6565b9450611702565b8093505050505b919050565b6117d78282604051806020016040528060008152506119ae565b5050565b600060086000838152602001908152602001600020905042816002015482600101546118079190612960565b1161181157600080fd5b50505050565b60006118388473ffffffffffffffffffffffffffffffffffffffff16611a09565b156119a1578373ffffffffffffffffffffffffffffffffffffffff1663150b7a026118616111a2565b8786866040518563ffffffff1660e01b81526004016118839493929190612618565b602060405180830381600087803b15801561189d57600080fd5b505af19250505080156118ce57506040513d601f19601f820116820180604052508101906118cb9190611ea0565b60015b611951573d80600081146118fe576040519150601f19603f3d011682016040523d82523d6000602084013e611903565b606091505b50600081511415611949576040517f08c379a0000000000000000000000000000000000000000000000000000000008152600401611940906126a1565b60405180910390fd5b805181602001fd5b63150b7a0260e01b7bffffffffffffffffffffffffffffffffffffffffffffffffffffffff1916817bffffffffffffffffffffffffffffffffffffffffffffffffffffffff1916149150506119a6565b600190505b949350505050565b6119b88383611a1c565b6119c56000848484611817565b611a04576040517f08c379a00000000000000000000000000000000000000000000000000000000081526004016119fb906126a1565b60405180910390fd5b505050565b600080823b905060008111915050919050565b600073ffffffffffffffffffffffffffffffffffffffff168273ffffffffffffffffffffffffffffffffffffffff161415611a8c576040517f08c379a0000000000000000000000000000000000000000000000000000000008152600401611a83906127c1565b60405180910390fd5b611a9581611136565b15611ad5576040517f08c379a0000000000000000000000000000000000000000000000000000000008152600401611acc906126e1565b60405180910390fd5b611ae1600083836117db565b6001600360008473ffffffffffffffffffffffffffffffffffffffff1673ffffffffffffffffffffffffffffffffffffffff1681526020019081526020016000206000828254611b319190612960565b92505081905550816002600083815260200190815260200160002060006101000a81548173ffffffffffffffffffffffffffffffffffffffff021916908373ffffffffffffffffffffffffffffffffffffffff160217905550808273ffffffffffffffffffffffffffffffffffffffff16600073ffffffffffffffffffffffffffffffffffffffff167fddf252ad1be2c89b69c2b068fc378daa952ba7f163c4a11628f55a4df523b3ef60405160405180910390a45050565b6000611bfd611bf8846128ed565b6128bc565b905082815260208101848484011115611c1557600080fd5b611c20848285612a9c565b509392505050565b600081359050611c3781612c57565b92915050565b600081359050611c4c81612c6e565b92915050565b600081359050611c6181612c85565b92915050565b600081519050611c7681612c85565b92915050565b600082601f830112611c8d57600080fd5b8135611c9d848260208601611bea565b91505092915050565b600081359050611cb581612c9c565b92915050565b600081359050611cca81612cb3565b92915050565b600060208284031215611ce257600080fd5b6000611cf084828501611c28565b91505092915050565b60008060408385031215611d0c57600080fd5b6000611d1a85828601611c28565b9250506020611d2b85828601611c28565b9150509250929050565b600080600060608486031215611d4a57600080fd5b6000611d5886828701611c28565b9350506020611d6986828701611c28565b9250506040611d7a86828701611ca6565b9150509250925092565b60008060008060808587031215611d9a57600080fd5b6000611da887828801611c28565b9450506020611db987828801611c28565b9350506040611dca87828801611ca6565b925050606085013567ffffffffffffffff811115611de757600080fd5b611df387828801611c7c565b91505092959194509250565b60008060408385031215611e1257600080fd5b6000611e2085828601611c28565b9250506020611e3185828601611c3d565b9150509250929050565b60008060408385031215611e4e57600080fd5b6000611e5c85828601611c28565b9250506020611e6d85828601611ca6565b9150509250929050565b600060208284031215611e8957600080fd5b6000611e9784828501611c52565b91505092915050565b600060208284031215611eb257600080fd5b6000611ec084828501611c67565b91505092915050565b600060208284031215611edb57600080fd5b6000611ee984828501611ca6565b91505092915050565b600080600060608486031215611f0757600080fd5b6000611f1586828701611cbb565b9350506020611f2686828701611cbb565b9250506040611f3786828701611ca6565b9150509250925092565b611f4a81612a1b565b82525050565b611f5981612a2d565b82525050565b6000611f6a8261291d565b611f748185612933565b9350611f84818560208601612aab565b611f8d81612c46565b840191505092915050565b6000611fa382612928565b611fad8185612944565b9350611fbd818560208601612aab565b611fc681612c46565b840191505092915050565b6000611fdc82612928565b611fe68185612955565b9350611ff6818560208601612aab565b80840191505092915050565b600061200f603283612944565b91507f4552433732313a207472616e7366657220746f206e6f6e20455243373231526560008301527f63656976657220696d706c656d656e74657200000000000000000000000000006020830152604082019050919050565b6000612075602683612944565b91507f4f776e61626c653a206e6577206f776e657220697320746865207a65726f206160008301527f64647265737300000000000000000000000000000000000000000000000000006020830152604082019050919050565b60006120db601c83612944565b91507f4552433732313a20746f6b656e20616c7265616479206d696e746564000000006000830152602082019050919050565b600061211b602483612944565b91507f4552433732313a207472616e7366657220746f20746865207a65726f2061646460008301527f72657373000000000000000000000000000000000000000000000000000000006020830152604082019050919050565b6000612181601983612944565b91507f4552433732313a20617070726f766520746f2063616c6c6572000000000000006000830152602082019050919050565b60006121c1602c83612944565b91507f4552433732313a206f70657261746f7220717565727920666f72206e6f6e657860008301527f697374656e7420746f6b656e00000000000000000000000000000000000000006020830152604082019050919050565b6000612227603883612944565b91507f4552433732313a20617070726f76652063616c6c6572206973206e6f74206f7760008301527f6e6572206e6f7220617070726f76656420666f7220616c6c00000000000000006020830152604082019050919050565b600061228d602a83612944565b91507f4552433732313a2062616c616e636520717565727920666f7220746865207a6560008301527f726f2061646472657373000000000000000000000000000000000000000000006020830152604082019050919050565b60006122f3602983612944565b91507f4552433732313a206f776e657220717565727920666f72206e6f6e657869737460008301527f656e7420746f6b656e00000000000000000000000000000000000000000000006020830152604082019050919050565b6000612359602083612944565b91507f4552433732313a206d696e7420746f20746865207a65726f20616464726573736000830152602082019050919050565b6000612399602c83612944565b91507f4552433732313a20617070726f76656420717565727920666f72206e6f6e657860008301527f697374656e7420746f6b656e00000000000000000000000000000000000000006020830152604082019050919050565b60006123ff602083612944565b91507f4f776e61626c653a2063616c6c6572206973206e6f7420746865206f776e65726000830152602082019050919050565b600061243f602983612944565b91507f4552433732313a207472616e73666572206f6620746f6b656e2074686174206960008301527f73206e6f74206f776e00000000000000000000000000000000000000000000006020830152604082019050919050565b60006124a5602f83612944565b91507f4552433732314d657461646174613a2055524920717565727920666f72206e6f60008301527f6e6578697374656e7420746f6b656e00000000000000000000000000000000006020830152604082019050919050565b600061250b602183612944565b91507f4552433732313a20617070726f76616c20746f2063757272656e74206f776e6560008301527f72000000000000000000000000000000000000000000000000000000000000006020830152604082019050919050565b6000612571603183612944565b91507f4552433732313a207472616e736665722063616c6c6572206973206e6f74206f60008301527f776e6572206e6f7220617070726f7665640000000000000000000000000000006020830152604082019050919050565b6125d381612a85565b82525050565b60006125e58285611fd1565b91506125f18284611fd1565b91508190509392505050565b60006020820190506126126000830184611f41565b92915050565b600060808201905061262d6000830187611f41565b61263a6020830186611f41565b61264760408301856125ca565b81810360608301526126598184611f5f565b905095945050505050565b60006020820190506126796000830184611f50565b92915050565b600060208201905081810360008301526126998184611f98565b905092915050565b600060208201905081810360008301526126ba81612002565b9050919050565b600060208201905081810360008301526126da81612068565b9050919050565b600060208201905081810360008301526126fa816120ce565b9050919050565b6000602082019050818103600083015261271a8161210e565b9050919050565b6000602082019050818103600083015261273a81612174565b9050919050565b6000602082019050818103600083015261275a816121b4565b9050919050565b6000602082019050818103600083015261277a8161221a565b9050919050565b6000602082019050818103600083015261279a81612280565b9050919050565b600060208201905081810360008301526127ba816122e6565b9050919050565b600060208201905081810360008301526127da8161234c565b9050919050565b600060208201905081810360008301526127fa8161238c565b9050919050565b6000602082019050818103600083015261281a816123f2565b9050919050565b6000602082019050818103600083015261283a81612432565b9050919050565b6000602082019050818103600083015261285a81612498565b9050919050565b6000602082019050818103600083015261287a816124fe565b9050919050565b6000602082019050818103600083015261289a81612564565b9050919050565b60006020820190506128b660008301846125ca565b92915050565b6000604051905081810181811067ffffffffffffffff821117156128e3576128e2612c17565b5b8060405250919050565b600067ffffffffffffffff82111561290857612907612c17565b5b601f19601f8301169050602081019050919050565b600081519050919050565b600081519050919050565b600082825260208201905092915050565b600082825260208201905092915050565b600081905092915050565b600061296b82612a85565b915061297683612a85565b9250827fffffffffffffffffffffffffffffffffffffffffffffffffffffffffffffffff038211156129ab576129aa612b8a565b5b828201905092915050565b60006129c182612a85565b91506129cc83612a85565b9250826129dc576129db612bb9565b5b828204905092915050565b60006129f282612a85565b91506129fd83612a85565b925082821015612a1057612a0f612b8a565b5b828203905092915050565b6000612a2682612a65565b9050919050565b60008115159050919050565b60007fffffffff0000000000000000000000000000000000000000000000000000000082169050919050565b600073ffffffffffffffffffffffffffffffffffffffff82169050919050565b6000819050919050565b600060ff82169050919050565b82818337600083830152505050565b60005b83811015612ac9578082015181840152602081019050612aae565b83811115612ad8576000848401525b50505050565b60006002820490506001821680612af657607f821691505b60208210811415612b0a57612b09612be8565b5b50919050565b6000612b1b82612a85565b91507fffffffffffffffffffffffffffffffffffffffffffffffffffffffffffffffff821415612b4e57612b4d612b8a565b5b600182019050919050565b6000612b6482612a85565b9150612b6f83612a85565b925082612b7f57612b7e612bb9565b5b828206905092915050565b7f4e487b7100000000000000000000000000000000000000000000000000000000600052601160045260246000fd5b7f4e487b7100000000000000000000000000000000000000000000000000000000600052601260045260246000fd5b7f4e487b7100000000000000000000000000000000000000000000000000000000600052602260045260246000fd5b7f4e487b7100000000000000000000000000000000000000000000000000000000600052604160045260246000fd5b6000601f19601f8301169050919050565b612c6081612a1b565b8114612c6b57600080fd5b50565b612c7781612a2d565b8114612c8257600080fd5b50565b612c8e81612a39565b8114612c9957600080fd5b50565b612ca581612a85565b8114612cb057600080fd5b50565b612cbc81612a8f565b8114612cc757600080fd5b5056fea26469706673582212204916b420422c451d8f9de5450352d848e86d9533c25b390d6a1ca47a7e84134464736f6c63430008000033",
  "immutableReferences": {},
  "source": "// SPDX-License-Identifier: GPL-3.0\r\npragma solidity >= 0.8.0 <= 0.9.0;\r\n\r\nimport \"../node_modules/@openzeppelin/contracts/token/ERC721/ERC721.sol\";\r\nimport \"../node_modules/@openzeppelin/contracts/access/Ownable.sol\";\r\n\r\ncontract Token is ERC721, Ownable {\r\n\r\n    struct Unicorn {\r\n        uint8 damage;\r\n        uint8 magic;\r\n        uint lastMeal;\r\n        uint endurance;\r\n    }\r\n\r\n    uint nextId = 0;\r\n\r\n    mapping( uint => Unicorn ) private _tokenDetails;\r\n\r\n    constructor( string memory name, string memory symbol ) ERC721(name, symbol) {\r\n\r\n    }\r\n\r\n    function mint( uint8 damage, uint8 magic, uint endurance) public onlyOwner {\r\n        _tokenDetails[nextId] = Unicorn( damage, magic, block.timestamp, endurance );\r\n        _safeMint(msg.sender, nextId);\r\n        nextId++;\r\n    }\r\n\r\n    function feed(uint tokenId) public {\r\n        Unicorn storage unicorn = _tokenDetails[tokenId];\r\n        require( unicorn.lastMeal + unicorn.endurance > block.timestamp);\r\n        _tokenDetails[tokenId].lastMeal = block.timestamp; \r\n    }\r\n\r\n    function _beforeTokenTransfer( address from, address to, uint256 tokenId) internal view override {\r\n        Unicorn storage unicorn = _tokenDetails[tokenId];\r\n        require( unicorn.lastMeal + unicorn.endurance > block.timestamp); // Unicorn still alive\r\n    }\r\n}",
  "sourcePath": "D:/Repos/nft-game/contracts/Token.sol",
  "compiler": {
    "name": "solc",
    "version": "0.8.0+commit.c7dfd78e.Emscripten.clang"
  },
  "schemaVersion": "3.4.1",
  "updatedAt": "2021-06-10T21:57:57.197Z",
  "devdoc": {
    "kind": "dev",
    "methods": {
      "approve(address,uint256)": {
        "details": "See {IERC721-approve}."
      },
      "balanceOf(address)": {
        "details": "See {IERC721-balanceOf}."
      },
      "getApproved(uint256)": {
        "details": "See {IERC721-getApproved}."
      },
      "isApprovedForAll(address,address)": {
        "details": "See {IERC721-isApprovedForAll}."
      },
      "name()": {
        "details": "See {IERC721Metadata-name}."
      },
      "owner()": {
        "details": "Returns the address of the current owner."
      },
      "ownerOf(uint256)": {
        "details": "See {IERC721-ownerOf}."
      },
      "renounceOwnership()": {
        "details": "Leaves the contract without owner. It will not be possible to call `onlyOwner` functions anymore. Can only be called by the current owner. NOTE: Renouncing ownership will leave the contract without an owner, thereby removing any functionality that is only available to the owner."
      },
      "safeTransferFrom(address,address,uint256)": {
        "details": "See {IERC721-safeTransferFrom}."
      },
      "safeTransferFrom(address,address,uint256,bytes)": {
        "details": "See {IERC721-safeTransferFrom}."
      },
      "setApprovalForAll(address,bool)": {
        "details": "See {IERC721-setApprovalForAll}."
      },
      "supportsInterface(bytes4)": {
        "details": "See {IERC165-supportsInterface}."
      },
      "symbol()": {
        "details": "See {IERC721Metadata-symbol}."
      },
      "tokenURI(uint256)": {
        "details": "See {IERC721Metadata-tokenURI}."
      },
      "transferFrom(address,address,uint256)": {
        "details": "See {IERC721-transferFrom}."
      },
      "transferOwnership(address)": {
        "details": "Transfers ownership of the contract to a new account (`newOwner`). Can only be called by the current owner."
      }
    },
    "version": 1
  },
  "userdoc": {
    "kind": "user",
    "methods": {},
    "version": 1
  }
}