{
  "contractName": "Token",
  "abi": [
    {
      "inputs": [
        {
          "internalType": "string",
          "name": "name",
          "type": "string"
        },
        {
          "internalType": "string",
          "name": "symbol",
          "type": "string"
        }
      ],
      "stateMutability": "nonpayable",
      "type": "constructor"
    },
    {
      "anonymous": false,
      "inputs": [
        {
          "indexed": true,
          "internalType": "address",
          "name": "owner",
          "type": "address"
        },
        {
          "indexed": true,
          "internalType": "address",
          "name": "approved",
          "type": "address"
        },
        {
          "indexed": true,
          "internalType": "uint256",
          "name": "tokenId",
          "type": "uint256"
        }
      ],
      "name": "Approval",
      "type": "event"
    },
    {
      "anonymous": false,
      "inputs": [
        {
          "indexed": true,
          "internalType": "address",
          "name": "owner",
          "type": "address"
        },
        {
          "indexed": true,
          "internalType": "address",
          "name": "operator",
          "type": "address"
        },
        {
          "indexed": false,
          "internalType": "bool",
          "name": "approved",
          "type": "bool"
        }
      ],
      "name": "ApprovalForAll",
      "type": "event"
    },
    {
      "anonymous": false,
      "inputs": [
        {
          "indexed": true,
          "internalType": "address",
          "name": "previousOwner",
          "type": "address"
        },
        {
          "indexed": true,
          "internalType": "address",
          "name": "newOwner",
          "type": "address"
        }
      ],
      "name": "OwnershipTransferred",
      "type": "event"
    },
    {
      "anonymous": false,
      "inputs": [
        {
          "indexed": true,
          "internalType": "address",
          "name": "from",
          "type": "address"
        },
        {
          "indexed": true,
          "internalType": "address",
          "name": "to",
          "type": "address"
        },
        {
          "indexed": true,
          "internalType": "uint256",
          "name": "tokenId",
          "type": "uint256"
        }
      ],
      "name": "Transfer",
      "type": "event"
    },
    {
      "inputs": [
        {
          "internalType": "address",
          "name": "to",
          "type": "address"
        },
        {
          "internalType": "uint256",
          "name": "tokenId",
          "type": "uint256"
        }
      ],
      "name": "approve",
      "outputs": [],
      "stateMutability": "nonpayable",
      "type": "function"
    },
    {
      "inputs": [
        {
          "internalType": "address",
          "name": "owner",
          "type": "address"
        }
      ],
      "name": "balanceOf",
      "outputs": [
        {
          "internalType": "uint256",
          "name": "",
          "type": "uint256"
        }
      ],
      "stateMutability": "view",
      "type": "function",
      "constant": true
    },
    {
      "inputs": [
        {
          "internalType": "uint256",
          "name": "tokenId",
          "type": "uint256"
        }
      ],
      "name": "getApproved",
      "outputs": [
        {
          "internalType": "address",
          "name": "",
          "type": "address"
        }
      ],
      "stateMutability": "view",
      "type": "function",
      "constant": true
    },
    {
      "inputs": [
        {
          "internalType": "address",
          "name": "owner",
          "type": "address"
        },
        {
          "internalType": "address",
          "name": "operator",
          "type": "address"
        }
      ],
      "name": "isApprovedForAll",
      "outputs": [
        {
          "internalType": "bool",
          "name": "",
          "type": "bool"
        }
      ],
      "stateMutability": "view",
      "type": "function",
      "constant": true
    },
    {
      "inputs": [],
      "name": "name",
      "outputs": [
        {
          "internalType": "string",
          "name": "",
          "type": "string"
        }
      ],
      "stateMutability": "view",
      "type": "function",
      "constant": true
    },
    {
      "inputs": [],
      "name": "owner",
      "outputs": [
        {
          "internalType": "address",
          "name": "",
          "type": "address"
        }
      ],
      "stateMutability": "view",
      "type": "function",
      "constant": true
    },
    {
      "inputs": [
        {
          "internalType": "uint256",
          "name": "tokenId",
          "type": "uint256"
        }
      ],
      "name": "ownerOf",
      "outputs": [
        {
          "internalType": "address",
          "name": "",
          "type": "address"
        }
      ],
      "stateMutability": "view",
      "type": "function",
      "constant": true
    },
    {
      "inputs": [],
      "name": "renounceOwnership",
      "outputs": [],
      "stateMutability": "nonpayable",
      "type": "function"
    },
    {
      "inputs": [
        {
          "internalType": "address",
          "name": "from",
          "type": "address"
        },
        {
          "internalType": "address",
          "name": "to",
          "type": "address"
        },
        {
          "internalType": "uint256",
          "name": "tokenId",
          "type": "uint256"
        }
      ],
      "name": "safeTransferFrom",
      "outputs": [],
      "stateMutability": "nonpayable",
      "type": "function"
    },
    {
      "inputs": [
        {
          "internalType": "address",
          "name": "from",
          "type": "address"
        },
        {
          "internalType": "address",
          "name": "to",
          "type": "address"
        },
        {
          "internalType": "uint256",
          "name": "tokenId",
          "type": "uint256"
        },
        {
          "internalType": "bytes",
          "name": "_data",
          "type": "bytes"
        }
      ],
      "name": "safeTransferFrom",
      "outputs": [],
      "stateMutability": "nonpayable",
      "type": "function"
    },
    {
      "inputs": [
        {
          "internalType": "address",
          "name": "operator",
          "type": "address"
        },
        {
          "internalType": "bool",
          "name": "approved",
          "type": "bool"
        }
      ],
      "name": "setApprovalForAll",
      "outputs": [],
      "stateMutability": "nonpayable",
      "type": "function"
    },
    {
      "inputs": [
        {
          "internalType": "bytes4",
          "name": "interfaceId",
          "type": "bytes4"
        }
      ],
      "name": "supportsInterface",
      "outputs": [
        {
          "internalType": "bool",
          "name": "",
          "type": "bool"
        }
      ],
      "stateMutability": "view",
      "type": "function",
      "constant": true
    },
    {
      "inputs": [],
      "name": "symbol",
      "outputs": [
        {
          "internalType": "string",
          "name": "",
          "type": "string"
        }
      ],
      "stateMutability": "view",
      "type": "function",
      "constant": true
    },
    {
      "inputs": [
        {
          "internalType": "uint256",
          "name": "tokenId",
          "type": "uint256"
        }
      ],
      "name": "tokenURI",
      "outputs": [
        {
          "internalType": "string",
          "name": "",
          "type": "string"
        }
      ],
      "stateMutability": "view",
      "type": "function",
      "constant": true
    },
    {
      "inputs": [
        {
          "internalType": "address",
          "name": "from",
          "type": "address"
        },
        {
          "internalType": "address",
          "name": "to",
          "type": "address"
        },
        {
          "internalType": "uint256",
          "name": "tokenId",
          "type": "uint256"
        }
      ],
      "name": "transferFrom",
      "outputs": [],
      "stateMutability": "nonpayable",
      "type": "function"
    },
    {
      "inputs": [
        {
          "internalType": "address",
          "name": "newOwner",
          "type": "address"
        }
      ],
      "name": "transferOwnership",
      "outputs": [],
      "stateMutability": "nonpayable",
      "type": "function"
    },
    {
      "inputs": [
        {
          "internalType": "uint256",
          "name": "tokenId",
          "type": "uint256"
        }
      ],
      "name": "getTokenDetails",
      "outputs": [
        {
          "components": [
            {
              "internalType": "uint8",
              "name": "damage",
              "type": "uint8"
            },
            {
              "internalType": "uint8",
              "name": "magic",
              "type": "uint8"
            },
            {
              "internalType": "uint256",
              "name": "lastMeal",
              "type": "uint256"
            },
            {
              "internalType": "uint256",
              "name": "endurance",
              "type": "uint256"
            }
          ],
          "internalType": "struct Token.Unicorn",
          "name": "",
          "type": "tuple"
        }
      ],
      "stateMutability": "view",
      "type": "function",
      "constant": true
    },
    {
      "inputs": [
        {
          "internalType": "uint8",
          "name": "damage",
          "type": "uint8"
        },
        {
          "internalType": "uint8",
          "name": "magic",
          "type": "uint8"
        },
        {
          "internalType": "uint256",
          "name": "endurance",
          "type": "uint256"
        }
      ],
      "name": "mint",
      "outputs": [],
      "stateMutability": "nonpayable",
      "type": "function"
    },
    {
      "inputs": [
        {
          "internalType": "uint256",
          "name": "tokenId",
          "type": "uint256"
        }
      ],
      "name": "feed",
      "outputs": [],
      "stateMutability": "nonpayable",
      "type": "function"
    }
  ],
  "bytecode": "0x608060405260006007553480156200001657600080fd5b506040516200327b3803806200327b83398181016040528101906200003c919062000255565b818181600090805190602001906200005692919062000133565b5080600190805190602001906200006f92919062000133565b5050506000620000846200012b60201b60201c565b905080600660006101000a81548173ffffffffffffffffffffffffffffffffffffffff021916908373ffffffffffffffffffffffffffffffffffffffff1602179055508073ffffffffffffffffffffffffffffffffffffffff16600073ffffffffffffffffffffffffffffffffffffffff167f8be0079c531659141344cd1fd0a4f28419497f9722a3daafe3b4186f6b6457e060405160405180910390a3505050620003f9565b600033905090565b828054620001419062000365565b90600052602060002090601f016020900481019282620001655760008555620001b1565b82601f106200018057805160ff1916838001178555620001b1565b82800160010185558215620001b1579182015b82811115620001b057825182559160200191906001019062000193565b5b509050620001c09190620001c4565b5090565b5b80821115620001df576000816000905550600101620001c5565b5090565b6000620001fa620001f484620002fc565b620002c8565b9050828152602081018484840111156200021357600080fd5b620002208482856200032f565b509392505050565b600082601f8301126200023a57600080fd5b81516200024c848260208601620001e3565b91505092915050565b600080604083850312156200026957600080fd5b600083015167ffffffffffffffff8111156200028457600080fd5b620002928582860162000228565b925050602083015167ffffffffffffffff811115620002b057600080fd5b620002be8582860162000228565b9150509250929050565b6000604051905081810181811067ffffffffffffffff82111715620002f257620002f1620003ca565b5b8060405250919050565b600067ffffffffffffffff8211156200031a5762000319620003ca565b5b601f19601f8301169050602081019050919050565b60005b838110156200034f57808201518184015260208101905062000332565b838111156200035f576000848401525b50505050565b600060028204905060018216806200037e57607f821691505b602082108114156200039557620003946200039b565b5b50919050565b7f4e487b7100000000000000000000000000000000000000000000000000000000600052602260045260246000fd5b7f4e487b7100000000000000000000000000000000000000000000000000000000600052604160045260246000fd5b612e7280620004096000396000f3fe608060405234801561001057600080fd5b50600436106101215760003560e01c80638da5cb5b116100ad578063c87b56dd11610071578063c87b56dd14610306578063e985e9c514610336578063eb22ed3214610366578063f2fde38b14610382578063f59dfdfb1461039e57610121565b80638da5cb5b1461026257806395d89b4114610280578063a22cb4651461029e578063b88d4fde146102ba578063c1e03728146102d657610121565b806323b872dd116100f457806323b872dd146101c057806342842e0e146101dc5780636352211e146101f857806370a0823114610228578063715018a61461025857610121565b806301ffc9a71461012657806306fdde0314610156578063081812fc14610174578063095ea7b3146101a4575b600080fd5b610140600480360381019061013b9190611f5b565b6103ba565b60405161014d91906127bb565b60405180910390f35b61015e61049c565b60405161016b91906127d6565b60405180910390f35b61018e60048036038101906101899190611fad565b61052e565b60405161019b9190612754565b60405180910390f35b6101be60048036038101906101b99190611f1f565b6105b3565b005b6101da60048036038101906101d59190611e19565b6106cb565b005b6101f660048036038101906101f19190611e19565b61072b565b005b610212600480360381019061020d9190611fad565b61074b565b60405161021f9190612754565b60405180910390f35b610242600480360381019061023d9190611db4565b6107fd565b60405161024f9190612a13565b60405180910390f35b6102606108b5565b005b61026a6109f2565b6040516102779190612754565b60405180910390f35b610288610a1c565b60405161029591906127d6565b60405180910390f35b6102b860048036038101906102b39190611ee3565b610aae565b005b6102d460048036038101906102cf9190611e68565b610c2f565b005b6102f060048036038101906102eb9190611fad565b610c91565b6040516102fd91906129f8565b60405180910390f35b610320600480360381019061031b9190611fad565b610d0c565b60405161032d91906127d6565b60405180910390f35b610350600480360381019061034b9190611ddd565b610db3565b60405161035d91906127bb565b60405180910390f35b610380600480360381019061037b9190611fd6565b610e47565b005b61039c60048036038101906103979190611db4565b610f81565b005b6103b860048036038101906103b39190611fad565b61112d565b005b60007f80ac58cd000000000000000000000000000000000000000000000000000000007bffffffffffffffffffffffffffffffffffffffffffffffffffffffff1916827bffffffffffffffffffffffffffffffffffffffffffffffffffffffff1916148061048557507f5b5e139f000000000000000000000000000000000000000000000000000000007bffffffffffffffffffffffffffffffffffffffffffffffffffffffff1916827bffffffffffffffffffffffffffffffffffffffffffffffffffffffff1916145b80610495575061049482611182565b5b9050919050565b6060600080546104ab90612c50565b80601f01602080910402602001604051908101604052809291908181526020018280546104d790612c50565b80156105245780601f106104f957610100808354040283529160200191610524565b820191906000526020600020905b81548152906001019060200180831161050757829003601f168201915b5050505050905090565b6000610539826111ec565b610578576040517f08c379a000000000000000000000000000000000000000000000000000000000815260040161056f90612938565b60405180910390fd5b6004600083815260200190815260200160002060009054906101000a900473ffffffffffffffffffffffffffffffffffffffff169050919050565b60006105be8261074b565b90508073ffffffffffffffffffffffffffffffffffffffff168373ffffffffffffffffffffffffffffffffffffffff16141561062f576040517f08c379a0000000000000000000000000000000000000000000000000000000008152600401610626906129b8565b60405180910390fd5b8073ffffffffffffffffffffffffffffffffffffffff1661064e611258565b73ffffffffffffffffffffffffffffffffffffffff16148061067d575061067c81610677611258565b610db3565b5b6106bc576040517f08c379a00000000000000000000000000000000000000000000000000000000081526004016106b3906128b8565b60405180910390fd5b6106c68383611260565b505050565b6106dc6106d6611258565b82611319565b61071b576040517f08c379a0000000000000000000000000000000000000000000000000000000008152600401610712906129d8565b60405180910390fd5b6107268383836113f7565b505050565b61074683838360405180602001604052806000815250610c2f565b505050565b6000806002600084815260200190815260200160002060009054906101000a900473ffffffffffffffffffffffffffffffffffffffff169050600073ffffffffffffffffffffffffffffffffffffffff168173ffffffffffffffffffffffffffffffffffffffff1614156107f4576040517f08c379a00000000000000000000000000000000000000000000000000000000081526004016107eb906128f8565b60405180910390fd5b80915050919050565b60008073ffffffffffffffffffffffffffffffffffffffff168273ffffffffffffffffffffffffffffffffffffffff16141561086e576040517f08c379a0000000000000000000000000000000000000000000000000000000008152600401610865906128d8565b60405180910390fd5b600360008373ffffffffffffffffffffffffffffffffffffffff1673ffffffffffffffffffffffffffffffffffffffff168152602001908152602001600020549050919050565b6108bd611258565b73ffffffffffffffffffffffffffffffffffffffff166108db6109f2565b73ffffffffffffffffffffffffffffffffffffffff1614610931576040517f08c379a000000000000000000000000000000000000000000000000000000000815260040161092890612958565b60405180910390fd5b600073ffffffffffffffffffffffffffffffffffffffff16600660009054906101000a900473ffffffffffffffffffffffffffffffffffffffff1673ffffffffffffffffffffffffffffffffffffffff167f8be0079c531659141344cd1fd0a4f28419497f9722a3daafe3b4186f6b6457e060405160405180910390a36000600660006101000a81548173ffffffffffffffffffffffffffffffffffffffff021916908373ffffffffffffffffffffffffffffffffffffffff160217905550565b6000600660009054906101000a900473ffffffffffffffffffffffffffffffffffffffff16905090565b606060018054610a2b90612c50565b80601f0160208091040260200160405190810160405280929190818152602001828054610a5790612c50565b8015610aa45780601f10610a7957610100808354040283529160200191610aa4565b820191906000526020600020905b815481529060010190602001808311610a8757829003601f168201915b5050505050905090565b610ab6611258565b73ffffffffffffffffffffffffffffffffffffffff168273ffffffffffffffffffffffffffffffffffffffff161415610b24576040517f08c379a0000000000000000000000000000000000000000000000000000000008152600401610b1b90612878565b60405180910390fd5b8060056000610b31611258565b73ffffffffffffffffffffffffffffffffffffffff1673ffffffffffffffffffffffffffffffffffffffff16815260200190815260200160002060008473ffffffffffffffffffffffffffffffffffffffff1673ffffffffffffffffffffffffffffffffffffffff16815260200190815260200160002060006101000a81548160ff0219169083151502179055508173ffffffffffffffffffffffffffffffffffffffff16610bde611258565b73ffffffffffffffffffffffffffffffffffffffff167f17307eab39ab6107e8899845ad3d59bd9653f200f220920489ca2b5937696c3183604051610c2391906127bb565b60405180910390a35050565b610c40610c3a611258565b83611319565b610c7f576040517f08c379a0000000000000000000000000000000000000000000000000000000008152600401610c76906129d8565b60405180910390fd5b610c8b84848484611653565b50505050565b610c99611ca0565b600860008381526020019081526020016000206040518060800160405290816000820160009054906101000a900460ff1660ff1660ff1681526020016000820160019054906101000a900460ff1660ff1660ff168152602001600182015481526020016002820154815250509050919050565b6060610d17826111ec565b610d56576040517f08c379a0000000000000000000000000000000000000000000000000000000008152600401610d4d90612998565b60405180910390fd5b6000610d606116af565b90506000815111610d805760405180602001604052806000815250610dab565b80610d8a846116c6565b604051602001610d9b929190612730565b6040516020818303038152906040525b915050919050565b6000600560008473ffffffffffffffffffffffffffffffffffffffff1673ffffffffffffffffffffffffffffffffffffffff16815260200190815260200160002060008373ffffffffffffffffffffffffffffffffffffffff1673ffffffffffffffffffffffffffffffffffffffff16815260200190815260200160002060009054906101000a900460ff16905092915050565b610e4f611258565b73ffffffffffffffffffffffffffffffffffffffff16610e6d6109f2565b73ffffffffffffffffffffffffffffffffffffffff1614610ec3576040517f08c379a0000000000000000000000000000000000000000000000000000000008152600401610eba90612958565b60405180910390fd5b60405180608001604052808460ff1681526020018360ff1681526020014281526020018281525060086000600754815260200190815260200160002060008201518160000160006101000a81548160ff021916908360ff16021790555060208201518160000160016101000a81548160ff021916908360ff1602179055506040820151816001015560608201518160020155905050610f6433600754611873565b60076000815480929190610f7790612c82565b9190505550505050565b610f89611258565b73ffffffffffffffffffffffffffffffffffffffff16610fa76109f2565b73ffffffffffffffffffffffffffffffffffffffff1614610ffd576040517f08c379a0000000000000000000000000000000000000000000000000000000008152600401610ff490612958565b60405180910390fd5b600073ffffffffffffffffffffffffffffffffffffffff168173ffffffffffffffffffffffffffffffffffffffff16141561106d576040517f08c379a000000000000000000000000000000000000000000000000000000000815260040161106490612818565b60405180910390fd5b8073ffffffffffffffffffffffffffffffffffffffff16600660009054906101000a900473ffffffffffffffffffffffffffffffffffffffff1673ffffffffffffffffffffffffffffffffffffffff167f8be0079c531659141344cd1fd0a4f28419497f9722a3daafe3b4186f6b6457e060405160405180910390a380600660006101000a81548173ffffffffffffffffffffffffffffffffffffffff021916908373ffffffffffffffffffffffffffffffffffffffff16021790555050565b600060086000838152602001908152602001600020905042816002015482600101546111599190612ad2565b1161116357600080fd5b4260086000848152602001908152602001600020600101819055505050565b60007f01ffc9a7000000000000000000000000000000000000000000000000000000007bffffffffffffffffffffffffffffffffffffffffffffffffffffffff1916827bffffffffffffffffffffffffffffffffffffffffffffffffffffffff1916149050919050565b60008073ffffffffffffffffffffffffffffffffffffffff166002600084815260200190815260200160002060009054906101000a900473ffffffffffffffffffffffffffffffffffffffff1673ffffffffffffffffffffffffffffffffffffffff1614159050919050565b600033905090565b816004600083815260200190815260200160002060006101000a81548173ffffffffffffffffffffffffffffffffffffffff021916908373ffffffffffffffffffffffffffffffffffffffff160217905550808273ffffffffffffffffffffffffffffffffffffffff166112d38361074b565b73ffffffffffffffffffffffffffffffffffffffff167f8c5be1e5ebec7d5bd14f71427d1e84f3dd0314c0f7b2291e5b200ac8c7c3b92560405160405180910390a45050565b6000611324826111ec565b611363576040517f08c379a000000000000000000000000000000000000000000000000000000000815260040161135a90612898565b60405180910390fd5b600061136e8361074b565b90508073ffffffffffffffffffffffffffffffffffffffff168473ffffffffffffffffffffffffffffffffffffffff1614806113dd57508373ffffffffffffffffffffffffffffffffffffffff166113c58461052e565b73ffffffffffffffffffffffffffffffffffffffff16145b806113ee57506113ed8185610db3565b5b91505092915050565b8273ffffffffffffffffffffffffffffffffffffffff166114178261074b565b73ffffffffffffffffffffffffffffffffffffffff161461146d576040517f08c379a000000000000000000000000000000000000000000000000000000000815260040161146490612978565b60405180910390fd5b600073ffffffffffffffffffffffffffffffffffffffff168273ffffffffffffffffffffffffffffffffffffffff1614156114dd576040517f08c379a00000000000000000000000000000000000000000000000000000000081526004016114d490612858565b60405180910390fd5b6114e8838383611891565b6114f3600082611260565b6001600360008573ffffffffffffffffffffffffffffffffffffffff1673ffffffffffffffffffffffffffffffffffffffff16815260200190815260200160002060008282546115439190612b59565b925050819055506001600360008473ffffffffffffffffffffffffffffffffffffffff1673ffffffffffffffffffffffffffffffffffffffff168152602001908152602001600020600082825461159a9190612ad2565b92505081905550816002600083815260200190815260200160002060006101000a81548173ffffffffffffffffffffffffffffffffffffffff021916908373ffffffffffffffffffffffffffffffffffffffff160217905550808273ffffffffffffffffffffffffffffffffffffffff168473ffffffffffffffffffffffffffffffffffffffff167fddf252ad1be2c89b69c2b068fc378daa952ba7f163c4a11628f55a4df523b3ef60405160405180910390a4505050565b61165e8484846113f7565b61166a848484846118cd565b6116a9576040517f08c379a00000000000000000000000000000000000000000000000000000000081526004016116a0906127f8565b60405180910390fd5b50505050565b606060405180602001604052806000815250905090565b6060600082141561170e576040518060400160405280600181526020017f3000000000000000000000000000000000000000000000000000000000000000815250905061186e565b600082905060005b6000821461174057808061172990612c82565b915050600a826117399190612b28565b9150611716565b60008167ffffffffffffffff811115611782577f4e487b7100000000000000000000000000000000000000000000000000000000600052604160045260246000fd5b6040519080825280601f01601f1916602001820160405280156117b45781602001600182028036833780820191505090505b5090505b60008514611867576001826117cd9190612b59565b9150600a856117dc9190612ccb565b60306117e89190612ad2565b60f81b818381518110611824577f4e487b7100000000000000000000000000000000000000000000000000000000600052603260045260246000fd5b60200101907effffffffffffffffffffffffffffffffffffffffffffffffffffffffffffff1916908160001a905350600a856118609190612b28565b94506117b8565b8093505050505b919050565b61188d828260405180602001604052806000815250611a64565b5050565b600060086000838152602001908152602001600020905042816002015482600101546118bd9190612ad2565b116118c757600080fd5b50505050565b60006118ee8473ffffffffffffffffffffffffffffffffffffffff16611abf565b15611a57578373ffffffffffffffffffffffffffffffffffffffff1663150b7a02611917611258565b8786866040518563ffffffff1660e01b8152600401611939949392919061276f565b602060405180830381600087803b15801561195357600080fd5b505af192505050801561198457506040513d601f19601f820116820180604052508101906119819190611f84565b60015b611a07573d80600081146119b4576040519150601f19603f3d011682016040523d82523d6000602084013e6119b9565b606091505b506000815114156119ff576040517f08c379a00000000000000000000000000000000000000000000000000000000081526004016119f6906127f8565b60405180910390fd5b805181602001fd5b63150b7a0260e01b7bffffffffffffffffffffffffffffffffffffffffffffffffffffffff1916817bffffffffffffffffffffffffffffffffffffffffffffffffffffffff191614915050611a5c565b600190505b949350505050565b611a6e8383611ad2565b611a7b60008484846118cd565b611aba576040517f08c379a0000000000000000000000000000000000000000000000000000000008152600401611ab1906127f8565b60405180910390fd5b505050565b600080823b905060008111915050919050565b600073ffffffffffffffffffffffffffffffffffffffff168273ffffffffffffffffffffffffffffffffffffffff161415611b42576040517f08c379a0000000000000000000000000000000000000000000000000000000008152600401611b3990612918565b60405180910390fd5b611b4b816111ec565b15611b8b576040517f08c379a0000000000000000000000000000000000000000000000000000000008152600401611b8290612838565b60405180910390fd5b611b9760008383611891565b6001600360008473ffffffffffffffffffffffffffffffffffffffff1673ffffffffffffffffffffffffffffffffffffffff1681526020019081526020016000206000828254611be79190612ad2565b92505081905550816002600083815260200190815260200160002060006101000a81548173ffffffffffffffffffffffffffffffffffffffff021916908373ffffffffffffffffffffffffffffffffffffffff160217905550808273ffffffffffffffffffffffffffffffffffffffff16600073ffffffffffffffffffffffffffffffffffffffff167fddf252ad1be2c89b69c2b068fc378daa952ba7f163c4a11628f55a4df523b3ef60405160405180910390a45050565b6040518060800160405280600060ff168152602001600060ff16815260200160008152602001600081525090565b6000611ce1611cdc84612a5f565b612a2e565b905082815260208101848484011115611cf957600080fd5b611d04848285612c0e565b509392505050565b600081359050611d1b81612dc9565b92915050565b600081359050611d3081612de0565b92915050565b600081359050611d4581612df7565b92915050565b600081519050611d5a81612df7565b92915050565b600082601f830112611d7157600080fd5b8135611d81848260208601611cce565b91505092915050565b600081359050611d9981612e0e565b92915050565b600081359050611dae81612e25565b92915050565b600060208284031215611dc657600080fd5b6000611dd484828501611d0c565b91505092915050565b60008060408385031215611df057600080fd5b6000611dfe85828601611d0c565b9250506020611e0f85828601611d0c565b9150509250929050565b600080600060608486031215611e2e57600080fd5b6000611e3c86828701611d0c565b9350506020611e4d86828701611d0c565b9250506040611e5e86828701611d8a565b9150509250925092565b60008060008060808587031215611e7e57600080fd5b6000611e8c87828801611d0c565b9450506020611e9d87828801611d0c565b9350506040611eae87828801611d8a565b925050606085013567ffffffffffffffff811115611ecb57600080fd5b611ed787828801611d60565b91505092959194509250565b60008060408385031215611ef657600080fd5b6000611f0485828601611d0c565b9250506020611f1585828601611d21565b9150509250929050565b60008060408385031215611f3257600080fd5b6000611f4085828601611d0c565b9250506020611f5185828601611d8a565b9150509250929050565b600060208284031215611f6d57600080fd5b6000611f7b84828501611d36565b91505092915050565b600060208284031215611f9657600080fd5b6000611fa484828501611d4b565b91505092915050565b600060208284031215611fbf57600080fd5b6000611fcd84828501611d8a565b91505092915050565b600080600060608486031215611feb57600080fd5b6000611ff986828701611d9f565b935050602061200a86828701611d9f565b925050604061201b86828701611d8a565b9150509250925092565b61202e81612b8d565b82525050565b61203d81612b9f565b82525050565b600061204e82612a8f565b6120588185612aa5565b9350612068818560208601612c1d565b61207181612db8565b840191505092915050565b600061208782612a9a565b6120918185612ab6565b93506120a1818560208601612c1d565b6120aa81612db8565b840191505092915050565b60006120c082612a9a565b6120ca8185612ac7565b93506120da818560208601612c1d565b80840191505092915050565b60006120f3603283612ab6565b91507f4552433732313a207472616e7366657220746f206e6f6e20455243373231526560008301527f63656976657220696d706c656d656e74657200000000000000000000000000006020830152604082019050919050565b6000612159602683612ab6565b91507f4f776e61626c653a206e6577206f776e657220697320746865207a65726f206160008301527f64647265737300000000000000000000000000000000000000000000000000006020830152604082019050919050565b60006121bf601c83612ab6565b91507f4552433732313a20746f6b656e20616c7265616479206d696e746564000000006000830152602082019050919050565b60006121ff602483612ab6565b91507f4552433732313a207472616e7366657220746f20746865207a65726f2061646460008301527f72657373000000000000000000000000000000000000000000000000000000006020830152604082019050919050565b6000612265601983612ab6565b91507f4552433732313a20617070726f766520746f2063616c6c6572000000000000006000830152602082019050919050565b60006122a5602c83612ab6565b91507f4552433732313a206f70657261746f7220717565727920666f72206e6f6e657860008301527f697374656e7420746f6b656e00000000000000000000000000000000000000006020830152604082019050919050565b600061230b603883612ab6565b91507f4552433732313a20617070726f76652063616c6c6572206973206e6f74206f7760008301527f6e6572206e6f7220617070726f76656420666f7220616c6c00000000000000006020830152604082019050919050565b6000612371602a83612ab6565b91507f4552433732313a2062616c616e636520717565727920666f7220746865207a6560008301527f726f2061646472657373000000000000000000000000000000000000000000006020830152604082019050919050565b60006123d7602983612ab6565b91507f4552433732313a206f776e657220717565727920666f72206e6f6e657869737460008301527f656e7420746f6b656e00000000000000000000000000000000000000000000006020830152604082019050919050565b600061243d602083612ab6565b91507f4552433732313a206d696e7420746f20746865207a65726f20616464726573736000830152602082019050919050565b600061247d602c83612ab6565b91507f4552433732313a20617070726f76656420717565727920666f72206e6f6e657860008301527f697374656e7420746f6b656e00000000000000000000000000000000000000006020830152604082019050919050565b60006124e3602083612ab6565b91507f4f776e61626c653a2063616c6c6572206973206e6f7420746865206f776e65726000830152602082019050919050565b6000612523602983612ab6565b91507f4552433732313a207472616e73666572206f6620746f6b656e2074686174206960008301527f73206e6f74206f776e00000000000000000000000000000000000000000000006020830152604082019050919050565b6000612589602f83612ab6565b91507f4552433732314d657461646174613a2055524920717565727920666f72206e6f60008301527f6e6578697374656e7420746f6b656e00000000000000000000000000000000006020830152604082019050919050565b60006125ef602183612ab6565b91507f4552433732313a20617070726f76616c20746f2063757272656e74206f776e6560008301527f72000000000000000000000000000000000000000000000000000000000000006020830152604082019050919050565b6000612655603183612ab6565b91507f4552433732313a207472616e736665722063616c6c6572206973206e6f74206f60008301527f776e6572206e6f7220617070726f7665640000000000000000000000000000006020830152604082019050919050565b6080820160008201516126c46000850182612721565b5060208201516126d76020850182612721565b5060408201516126ea6040850182612703565b5060608201516126fd6060850182612703565b50505050565b61270c81612bf7565b82525050565b61271b81612bf7565b82525050565b61272a81612c01565b82525050565b600061273c82856120b5565b915061274882846120b5565b91508190509392505050565b60006020820190506127696000830184612025565b92915050565b60006080820190506127846000830187612025565b6127916020830186612025565b61279e6040830185612712565b81810360608301526127b08184612043565b905095945050505050565b60006020820190506127d06000830184612034565b92915050565b600060208201905081810360008301526127f0818461207c565b905092915050565b60006020820190508181036000830152612811816120e6565b9050919050565b600060208201905081810360008301526128318161214c565b9050919050565b60006020820190508181036000830152612851816121b2565b9050919050565b60006020820190508181036000830152612871816121f2565b9050919050565b6000602082019050818103600083015261289181612258565b9050919050565b600060208201905081810360008301526128b181612298565b9050919050565b600060208201905081810360008301526128d1816122fe565b9050919050565b600060208201905081810360008301526128f181612364565b9050919050565b60006020820190508181036000830152612911816123ca565b9050919050565b6000602082019050818103600083015261293181612430565b9050919050565b6000602082019050818103600083015261295181612470565b9050919050565b60006020820190508181036000830152612971816124d6565b9050919050565b6000602082019050818103600083015261299181612516565b9050919050565b600060208201905081810360008301526129b18161257c565b9050919050565b600060208201905081810360008301526129d1816125e2565b9050919050565b600060208201905081810360008301526129f181612648565b9050919050565b6000608082019050612a0d60008301846126ae565b92915050565b6000602082019050612a286000830184612712565b92915050565b6000604051905081810181811067ffffffffffffffff82111715612a5557612a54612d89565b5b8060405250919050565b600067ffffffffffffffff821115612a7a57612a79612d89565b5b601f19601f8301169050602081019050919050565b600081519050919050565b600081519050919050565b600082825260208201905092915050565b600082825260208201905092915050565b600081905092915050565b6000612add82612bf7565b9150612ae883612bf7565b9250827fffffffffffffffffffffffffffffffffffffffffffffffffffffffffffffffff03821115612b1d57612b1c612cfc565b5b828201905092915050565b6000612b3382612bf7565b9150612b3e83612bf7565b925082612b4e57612b4d612d2b565b5b828204905092915050565b6000612b6482612bf7565b9150612b6f83612bf7565b925082821015612b8257612b81612cfc565b5b828203905092915050565b6000612b9882612bd7565b9050919050565b60008115159050919050565b60007fffffffff0000000000000000000000000000000000000000000000000000000082169050919050565b600073ffffffffffffffffffffffffffffffffffffffff82169050919050565b6000819050919050565b600060ff82169050919050565b82818337600083830152505050565b60005b83811015612c3b578082015181840152602081019050612c20565b83811115612c4a576000848401525b50505050565b60006002820490506001821680612c6857607f821691505b60208210811415612c7c57612c7b612d5a565b5b50919050565b6000612c8d82612bf7565b91507fffffffffffffffffffffffffffffffffffffffffffffffffffffffffffffffff821415612cc057612cbf612cfc565b5b600182019050919050565b6000612cd682612bf7565b9150612ce183612bf7565b925082612cf157612cf0612d2b565b5b828206905092915050565b7f4e487b7100000000000000000000000000000000000000000000000000000000600052601160045260246000fd5b7f4e487b7100000000000000000000000000000000000000000000000000000000600052601260045260246000fd5b7f4e487b7100000000000000000000000000000000000000000000000000000000600052602260045260246000fd5b7f4e487b7100000000000000000000000000000000000000000000000000000000600052604160045260246000fd5b6000601f19601f8301169050919050565b612dd281612b8d565b8114612ddd57600080fd5b50565b612de981612b9f565b8114612df457600080fd5b50565b612e0081612bab565b8114612e0b57600080fd5b50565b612e1781612bf7565b8114612e2257600080fd5b50565b612e2e81612c01565b8114612e3957600080fd5b5056fea264697066735822122081fb88828b5238f3c0e7c429196e73e08470a4ab5ae69d604b6c3eda8cc5d0f464736f6c63430008000033",
  "immutableReferences": {},
  "source": "// SPDX-License-Identifier: GPL-3.0\r\npragma solidity >= 0.8.0 <= 0.9.0;\r\n\r\nimport \"../node_modules/@openzeppelin/contracts/token/ERC721/ERC721.sol\";\r\nimport \"../node_modules/@openzeppelin/contracts/access/Ownable.sol\";\r\n\r\ncontract Token is ERC721, Ownable {\r\n\r\n    struct Unicorn {\r\n        uint8 damage;\r\n        uint8 magic;\r\n        uint lastMeal;\r\n        uint endurance;\r\n    }\r\n\r\n    uint nextId = 0;\r\n\r\n    mapping( uint => Unicorn ) private _tokenDetails;\r\n\r\n    constructor( string memory name, string memory symbol ) ERC721(name, symbol) {\r\n\r\n    }\r\n\r\n    function getTokenDetails( uint tokenId ) public view returns ( Unicorn memory ) {\r\n        return _tokenDetails[tokenId];\r\n    }\r\n\r\n    function mint( uint8 damage, uint8 magic, uint endurance) public onlyOwner {\r\n        _tokenDetails[nextId] = Unicorn( damage, magic, block.timestamp, endurance );\r\n        _safeMint(msg.sender, nextId);\r\n        nextId++;\r\n    }\r\n\r\n    function feed(uint tokenId) public {\r\n        Unicorn storage unicorn = _tokenDetails[tokenId];\r\n        require( unicorn.lastMeal + unicorn.endurance > block.timestamp);\r\n        _tokenDetails[tokenId].lastMeal = block.timestamp; \r\n    }\r\n\r\n    function _beforeTokenTransfer( address from, address to, uint256 tokenId) internal view override {\r\n        Unicorn storage unicorn = _tokenDetails[tokenId];\r\n        require( unicorn.lastMeal + unicorn.endurance > block.timestamp); // Unicorn still alive\r\n    }\r\n}",
  "sourcePath": "D:/Repos/nft-game/contracts/Token.sol",
  "compiler": {
    "name": "solc",
    "version": "0.8.0+commit.c7dfd78e.Emscripten.clang"
  },
  "schemaVersion": "3.4.1",
  "updatedAt": "2021-06-11T03:34:52.882Z",
  "networkType": "ethereum",
  "devdoc": {
    "kind": "dev",
    "methods": {
      "approve(address,uint256)": {
        "details": "See {IERC721-approve}."
      },
      "balanceOf(address)": {
        "details": "See {IERC721-balanceOf}."
      },
      "getApproved(uint256)": {
        "details": "See {IERC721-getApproved}."
      },
      "isApprovedForAll(address,address)": {
        "details": "See {IERC721-isApprovedForAll}."
      },
      "name()": {
        "details": "See {IERC721Metadata-name}."
      },
      "owner()": {
        "details": "Returns the address of the current owner."
      },
      "ownerOf(uint256)": {
        "details": "See {IERC721-ownerOf}."
      },
      "renounceOwnership()": {
        "details": "Leaves the contract without owner. It will not be possible to call `onlyOwner` functions anymore. Can only be called by the current owner. NOTE: Renouncing ownership will leave the contract without an owner, thereby removing any functionality that is only available to the owner."
      },
      "safeTransferFrom(address,address,uint256)": {
        "details": "See {IERC721-safeTransferFrom}."
      },
      "safeTransferFrom(address,address,uint256,bytes)": {
        "details": "See {IERC721-safeTransferFrom}."
      },
      "setApprovalForAll(address,bool)": {
        "details": "See {IERC721-setApprovalForAll}."
      },
      "supportsInterface(bytes4)": {
        "details": "See {IERC165-supportsInterface}."
      },
      "symbol()": {
        "details": "See {IERC721Metadata-symbol}."
      },
      "tokenURI(uint256)": {
        "details": "See {IERC721Metadata-tokenURI}."
      },
      "transferFrom(address,address,uint256)": {
        "details": "See {IERC721-transferFrom}."
      },
      "transferOwnership(address)": {
        "details": "Transfers ownership of the contract to a new account (`newOwner`). Can only be called by the current owner."
      }
    },
    "version": 1
  },
  "userdoc": {
    "kind": "user",
    "methods": {},
    "version": 1
  }
}